{
  "contractName": "TokenFarm",
  "abi": [
    {
      "inputs": [
        {
          "internalType": "contract DappToken",
          "name": "_dappToken",
          "type": "address"
        },
        {
          "internalType": "contract DaiToken",
          "name": "_daiToken",
          "type": "address"
        }
      ],
      "stateMutability": "nonpayable",
      "type": "constructor"
    },
    {
      "inputs": [],
      "name": "daiToken",
      "outputs": [
        {
          "internalType": "contract DaiToken",
          "name": "",
          "type": "address"
        }
      ],
      "stateMutability": "view",
      "type": "function",
      "constant": true
    },
    {
      "inputs": [],
      "name": "dappToken",
      "outputs": [
        {
          "internalType": "contract DappToken",
          "name": "",
          "type": "address"
        }
      ],
      "stateMutability": "view",
      "type": "function",
      "constant": true
    },
    {
      "inputs": [
        {
          "internalType": "address",
          "name": "",
          "type": "address"
        }
      ],
      "name": "hasStaked",
      "outputs": [
        {
          "internalType": "bool",
          "name": "",
          "type": "bool"
        }
      ],
      "stateMutability": "view",
      "type": "function",
      "constant": true
    },
    {
      "inputs": [
        {
          "internalType": "address",
          "name": "",
          "type": "address"
        }
      ],
      "name": "isStaked",
      "outputs": [
        {
          "internalType": "bool",
          "name": "",
          "type": "bool"
        }
      ],
      "stateMutability": "view",
      "type": "function",
      "constant": true
    },
    {
      "inputs": [],
      "name": "name",
      "outputs": [
        {
          "internalType": "string",
          "name": "",
          "type": "string"
        }
      ],
      "stateMutability": "view",
      "type": "function",
      "constant": true
    },
    {
      "inputs": [],
      "name": "owner",
      "outputs": [
        {
          "internalType": "address",
          "name": "",
          "type": "address"
        }
      ],
      "stateMutability": "view",
      "type": "function",
      "constant": true
    },
    {
      "inputs": [
        {
          "internalType": "uint256",
          "name": "",
          "type": "uint256"
        }
      ],
      "name": "stakers",
      "outputs": [
        {
          "internalType": "address",
          "name": "",
          "type": "address"
        }
      ],
      "stateMutability": "view",
      "type": "function",
      "constant": true
    },
    {
      "inputs": [
        {
          "internalType": "address",
          "name": "",
          "type": "address"
        }
      ],
      "name": "stakingBalance",
      "outputs": [
        {
          "internalType": "uint256",
          "name": "",
          "type": "uint256"
        }
      ],
      "stateMutability": "view",
      "type": "function",
      "constant": true
    },
    {
      "inputs": [
        {
          "internalType": "uint256",
          "name": "_amount",
          "type": "uint256"
        }
      ],
      "name": "stakeTokens",
      "outputs": [],
      "stateMutability": "nonpayable",
      "type": "function"
    },
    {
      "inputs": [
        {
          "internalType": "uint256",
          "name": "_amount",
          "type": "uint256"
        }
      ],
      "name": "unstake",
      "outputs": [],
      "stateMutability": "nonpayable",
      "type": "function"
    },
    {
      "inputs": [],
      "name": "issueTokens",
      "outputs": [],
      "stateMutability": "nonpayable",
      "type": "function"
    }
  ],
  "bytecode": "0x60806040526040518060400160405280600f81526020017f4461707020546f6b656e204661726d0000000000000000000000000000000000815250600090805190602001906200005192919062000150565b503480156200005f57600080fd5b50604051620013203803806200132083398181016040528101906200008591906200022e565b81600660006101000a81548173ffffffffffffffffffffffffffffffffffffffff021916908373ffffffffffffffffffffffffffffffffffffffff16021790555080600760006101000a81548173ffffffffffffffffffffffffffffffffffffffff021916908373ffffffffffffffffffffffffffffffffffffffff16021790555033600260006101000a81548173ffffffffffffffffffffffffffffffffffffffff021916908373ffffffffffffffffffffffffffffffffffffffff160217905550505062000364565b8280546200015e90620002cb565b90600052602060002090601f016020900481019282620001825760008555620001ce565b82601f106200019d57805160ff1916838001178555620001ce565b82800160010185558215620001ce579182015b82811115620001cd578251825591602001919060010190620001b0565b5b509050620001dd9190620001e1565b5090565b5b80821115620001fc576000816000905550600101620001e2565b5090565b600081519050620002118162000330565b92915050565b60008151905062000228816200034a565b92915050565b600080604083850312156200024257600080fd5b6000620002528582860162000217565b9250506020620002658582860162000200565b9150509250929050565b60006200027c82620002ab565b9050919050565b600062000290826200026f565b9050919050565b6000620002a4826200026f565b9050919050565b600073ffffffffffffffffffffffffffffffffffffffff82169050919050565b60006002820490506001821680620002e457607f821691505b60208210811415620002fb57620002fa62000301565b5b50919050565b7f4e487b7100000000000000000000000000000000000000000000000000000000600052602260045260246000fd5b6200033b8162000283565b81146200034757600080fd5b50565b620003558162000297565b81146200036157600080fd5b50565b610fac80620003746000396000f3fe608060405234801561001057600080fd5b50600436106100a95760003560e01c80636177fd18116100715780636177fd18146101405780637547c7a3146101705780638da5cb5b1461018c578063be22f546146101aa578063c93c8f34146101c8578063fd5e6dd1146101f8576100a9565b806306fdde03146100ae5780632e17de78146100cc57806345bc78ab146100e85780635eb186f81461011857806360ab585214610136575b600080fd5b6100b6610228565b6040516100c39190610ca1565b60405180910390f35b6100e660048036038101906100e19190610b28565b6102b6565b005b61010260048036038101906100fd9190610ad6565b6104f0565b60405161010f9190610cc3565b60405180910390f35b610120610508565b60405161012d9190610c86565b60405180910390f35b61013e61052e565b005b61015a60048036038101906101559190610ad6565b610717565b6040516101679190610c50565b60405180910390f35b61018a60048036038101906101859190610b28565b610737565b005b6101946109ec565b6040516101a19190610bd5565b60405180910390f35b6101b2610a12565b6040516101bf9190610c6b565b60405180910390f35b6101e260048036038101906101dd9190610ad6565b610a38565b6040516101ef9190610c50565b60405180910390f35b610212600480360381019061020d9190610b28565b610a58565b60405161021f9190610bd5565b60405180910390f35b6000805461023590610e47565b80601f016020809104026020016040519081016040528092919081815260200182805461026190610e47565b80156102ae5780601f10610283576101008083540402835291602001916102ae565b820191906000526020600020905b81548152906001019060200180831161029157829003601f168201915b505050505081565b600081116102c357600080fd5b600360003373ffffffffffffffffffffffffffffffffffffffff1673ffffffffffffffffffffffffffffffffffffffff1681526020019081526020016000205481111561030f57600080fd5b80600360003373ffffffffffffffffffffffffffffffffffffffff1673ffffffffffffffffffffffffffffffffffffffff1681526020019081526020016000205461035a9190610d50565b600360003373ffffffffffffffffffffffffffffffffffffffff1673ffffffffffffffffffffffffffffffffffffffff16815260200190815260200160002081905550600760009054906101000a900473ffffffffffffffffffffffffffffffffffffffff1673ffffffffffffffffffffffffffffffffffffffff1663a9059cbb33836040518363ffffffff1660e01b81526004016103fa929190610c27565b602060405180830381600087803b15801561041457600080fd5b505af1158015610428573d6000803e3d6000fd5b505050506040513d601f19601f8201168201806040525081019061044c9190610aff565b506000600360003373ffffffffffffffffffffffffffffffffffffffff1673ffffffffffffffffffffffffffffffffffffffff16815260200190815260200160002054116104ed576000600560003373ffffffffffffffffffffffffffffffffffffffff1673ffffffffffffffffffffffffffffffffffffffff16815260200190815260200160002060006101000a81548160ff0219169083151502179055505b50565b60036020528060005260406000206000915090505481565b600660009054906101000a900473ffffffffffffffffffffffffffffffffffffffff1681565b600260009054906101000a900473ffffffffffffffffffffffffffffffffffffffff1673ffffffffffffffffffffffffffffffffffffffff163373ffffffffffffffffffffffffffffffffffffffff161461058857600080fd5b60005b600180549050811015610714576000600182815481106105d4577f4e487b7100000000000000000000000000000000000000000000000000000000600052603260045260246000fd5b9060005260206000200160009054906101000a900473ffffffffffffffffffffffffffffffffffffffff1690506000600360008373ffffffffffffffffffffffffffffffffffffffff1673ffffffffffffffffffffffffffffffffffffffff16815260200190815260200160002054905060008111156106ff57600660009054906101000a900473ffffffffffffffffffffffffffffffffffffffff1673ffffffffffffffffffffffffffffffffffffffff1663a9059cbb83836040518363ffffffff1660e01b81526004016106ab929190610c27565b602060405180830381600087803b1580156106c557600080fd5b505af11580156106d9573d6000803e3d6000fd5b505050506040513d601f19601f820116820180604052508101906106fd9190610aff565b505b5050808061070c90610e79565b91505061058b565b50565b60056020528060005260406000206000915054906101000a900460ff1681565b6000811161074457600080fd5b600760009054906101000a900473ffffffffffffffffffffffffffffffffffffffff1673ffffffffffffffffffffffffffffffffffffffff166323b872dd3330846040518463ffffffff1660e01b81526004016107a393929190610bf0565b602060405180830381600087803b1580156107bd57600080fd5b505af11580156107d1573d6000803e3d6000fd5b505050506040513d601f19601f820116820180604052508101906107f59190610aff565b5080600360003373ffffffffffffffffffffffffffffffffffffffff1673ffffffffffffffffffffffffffffffffffffffff168152602001908152602001600020546108419190610cfa565b600360003373ffffffffffffffffffffffffffffffffffffffff1673ffffffffffffffffffffffffffffffffffffffff16815260200190815260200160002081905550600460003373ffffffffffffffffffffffffffffffffffffffff1673ffffffffffffffffffffffffffffffffffffffff16815260200190815260200160002060009054906101000a900460ff16610939576001339080600181540180825580915050600190039060005260206000200160009091909190916101000a81548173ffffffffffffffffffffffffffffffffffffffff021916908373ffffffffffffffffffffffffffffffffffffffff1602179055505b6001600460003373ffffffffffffffffffffffffffffffffffffffff1673ffffffffffffffffffffffffffffffffffffffff16815260200190815260200160002060006101000a81548160ff0219169083151502179055506001600560003373ffffffffffffffffffffffffffffffffffffffff1673ffffffffffffffffffffffffffffffffffffffff16815260200190815260200160002060006101000a81548160ff02191690831515021790555050565b600260009054906101000a900473ffffffffffffffffffffffffffffffffffffffff1681565b600760009054906101000a900473ffffffffffffffffffffffffffffffffffffffff1681565b60046020528060005260406000206000915054906101000a900460ff1681565b60018181548110610a6857600080fd5b906000526020600020016000915054906101000a900473ffffffffffffffffffffffffffffffffffffffff1681565b600081359050610aa681610f31565b92915050565b600081519050610abb81610f48565b92915050565b600081359050610ad081610f5f565b92915050565b600060208284031215610ae857600080fd5b6000610af684828501610a97565b91505092915050565b600060208284031215610b1157600080fd5b6000610b1f84828501610aac565b91505092915050565b600060208284031215610b3a57600080fd5b6000610b4884828501610ac1565b91505092915050565b610b5a81610d84565b82525050565b610b6981610d96565b82525050565b610b7881610dcc565b82525050565b610b8781610df0565b82525050565b6000610b9882610cde565b610ba28185610ce9565b9350610bb2818560208601610e14565b610bbb81610f20565b840191505092915050565b610bcf81610dc2565b82525050565b6000602082019050610bea6000830184610b51565b92915050565b6000606082019050610c056000830186610b51565b610c126020830185610b51565b610c1f6040830184610bc6565b949350505050565b6000604082019050610c3c6000830185610b51565b610c496020830184610bc6565b9392505050565b6000602082019050610c656000830184610b60565b92915050565b6000602082019050610c806000830184610b6f565b92915050565b6000602082019050610c9b6000830184610b7e565b92915050565b60006020820190508181036000830152610cbb8184610b8d565b905092915050565b6000602082019050610cd86000830184610bc6565b92915050565b600081519050919050565b600082825260208201905092915050565b6000610d0582610dc2565b9150610d1083610dc2565b9250827fffffffffffffffffffffffffffffffffffffffffffffffffffffffffffffffff03821115610d4557610d44610ec2565b5b828201905092915050565b6000610d5b82610dc2565b9150610d6683610dc2565b925082821015610d7957610d78610ec2565b5b828203905092915050565b6000610d8f82610da2565b9050919050565b60008115159050919050565b600073ffffffffffffffffffffffffffffffffffffffff82169050919050565b6000819050919050565b6000610dd782610dde565b9050919050565b6000610de982610da2565b9050919050565b6000610dfb82610e02565b9050919050565b6000610e0d82610da2565b9050919050565b60005b83811015610e32578082015181840152602081019050610e17565b83811115610e41576000848401525b50505050565b60006002820490506001821680610e5f57607f821691505b60208210811415610e7357610e72610ef1565b5b50919050565b6000610e8482610dc2565b91507fffffffffffffffffffffffffffffffffffffffffffffffffffffffffffffffff821415610eb757610eb6610ec2565b5b600182019050919050565b7f4e487b7100000000000000000000000000000000000000000000000000000000600052601160045260246000fd5b7f4e487b7100000000000000000000000000000000000000000000000000000000600052602260045260246000fd5b6000601f19601f8301169050919050565b610f3a81610d84565b8114610f4557600080fd5b50565b610f5181610d96565b8114610f5c57600080fd5b50565b610f6881610dc2565b8114610f7357600080fd5b5056fea26469706673582212209233adc4728bc67cc8c427fab2ae4570873489b852bc9c2aa794b12ab50debd264736f6c63430008040033",
  "immutableReferences": {},
  "source": "// SPDX-License-Identifier: X\r\n\r\npragma solidity ^0.8.0;\r\n\r\n    import \"./DappToken.sol\";\r\n    import \"./DaiToken.sol\";\r\n\r\ncontract TokenFarm {\r\n\r\n    string public name = \"Dapp Token Farm\";\r\n    address[] public stakers;\r\n    address public owner;\r\n    mapping(address => uint) public stakingBalance;\r\n    mapping(address => bool) public hasStaked;\r\n    mapping(address => bool) public isStaked;\r\n\r\n    DappToken public dappToken;\r\n    DaiToken public daiToken;\r\n\r\n    constructor(DappToken _dappToken, DaiToken _daiToken) {\r\n        dappToken = _dappToken;\r\n        daiToken = _daiToken;\r\n        owner = msg.sender;\r\n    }\r\n\r\n    //external\r\n    //Staking\r\n    function stakeTokens(uint _amount) external {\r\n        require(_amount > 0);\r\n        daiToken.transferFrom(msg.sender, address(this), _amount);\r\n        stakingBalance[msg.sender] = stakingBalance[msg.sender] + _amount;\r\n        if(!hasStaked[msg.sender]) { \r\n            stakers.push(msg.sender);\r\n        }\r\n        hasStaked[msg.sender] = true;\r\n        isStaked[msg.sender] = true;\r\n        \r\n    }\r\n\r\n    //Unstake\r\n    function unstake(uint _amount) external {\r\n        require(_amount > 0);\r\n        require(_amount <= stakingBalance[msg.sender]);\r\n        stakingBalance[msg.sender] = stakingBalance[msg.sender] - _amount;\r\n        daiToken.transfer(msg.sender, _amount);\r\n        if (stakingBalance[msg.sender] <= 0) {\r\n            isStaked[msg.sender] = false;\r\n        }\r\n    }\r\n    \r\n    //only owner\r\n    //Issue Tokens\r\n    function issueTokens() external {\r\n        require (msg.sender == owner);\r\n        for(uint i=0; i<stakers.length; i++){\r\n            address recipient = stakers[i];\r\n            uint balance = stakingBalance[recipient];\r\n            if (balance > 0) {\r\n            dappToken.transfer(recipient, balance);\r\n            }\r\n        }\r\n    }\r\n\r\n}",
  "sourcePath": "C:/Users/frank/Downloads/git/TrueDappTest/contracts/TokenFarm.sol",
  "compiler": {
    "name": "solc",
    "version": "0.8.4+commit.c7e474f2.Emscripten.clang"
  },
  "schemaVersion": "3.2.3",
  "updatedAt": "2022-06-02T00:58:43.116Z",
  "networkType": "ethereum",
  "devdoc": {
    "kind": "dev",
    "methods": {},
    "version": 1
  },
  "userdoc": {
    "kind": "user",
    "methods": {},
    "version": 1
  }
}